:100000000C9473000C9492000C9492000C94920047
:100010000C9492000C9492000C9492000C94920018
:100020000C9492000C9492000C9492000C94920008
:100030000C9492000C9404020C9492000C94920084
:100040000C9492000C9492000C9492000C949200E8
:100050000C9492000C9492000C9492000C949200D8
:100060000C9434050C9492000C9492000C94920021
:100070000C9492000C9492000C9492000C949200B8
:100080000C9492000C9492000C94920008000000D2
:10009000BE922449123EABAAAA2ABECDCCCC4C3E7D
:1000A00000000080BEABAAAAAA3E00000000BF006C
:1000B0000000803F0000000000084178D3BB438768
:1000C000D1133D190E3CC3BD4282AD2B3E68EC827C
:1000D00076BED98FE1A93E4C80EFFFBE01C4FF7F01
:1000E0003F000000000011241FBECFEFD0E4DEBFB0
:1000F000CDBF11E0A0E0B1E0E2ECFBE200E00BBF1D
:1001000002C007900D92A235B107D9F721E0A2E510
:10011000B1E001C01D92A33AB207E1F70E94AC081A
:100120000C94DF150C940000CF93DF93CDB7DEB7AE
:1001300081E00E94BB000000DF91CF910895CF9332
:10014000DF93CDB7DEB784E690E00E945D0188E3DF
:100150000E94BB0086E00E94BB008CE00E94BB00B6
:1001600081E00E94BB008AE090E00E945D010000F7
:10017000DF91CF910895CF93DF931F92CDB7DEB774
:1001800089838BE290E02BE230E0F90120812F7B24
:10019000FC01208388E290E02981FC0120838BE22E
:1001A00090E02BE230E0F90120812068FC012083FF
:1001B00000008BE290E02BE230E0F90120812F7704
:1001C000FC01208382E090E00E945D0100000F901E
:1001D000DF91CF910895CF93DF931F92CDB7DEB714
:1001E00089838BE290E02BE230E0F90120812064EA
:1001F000FC01208388E290E02981FC0120838BE2CE
:1002000090E02BE230E0F90120812068FC0120839E
:1002100000008BE290E02BE230E0F90120812F77A3
:10022000FC01208381E090E00E945D0100000F90BE
:10023000DF91CF910895CF93DF9300D000D0CDB759
:10024000DEB78A837C836B838A81898311C089812D
:1002500091E0980F99830E9446018B819C819C01BB
:100260002F5F3F4F3C832B83FC0180810E94EB007A
:100270008B819C81FC018081882349F700000F90CD
:100280000F900F900F90DF91CF910895CF93DF9350
:100290001F92CDB7DEB789838981813128F48981A6
:1002A00081580E94BB0004C0898181550E94BB0017
:1002B00000000F90DF91CF910895CF93DF9300D08E
:1002C00000D000D0CDB7DEB79E838D831A8219820D
:1002D00013C01C821B8206C000008B819C8101968A
:1002E0009C838B838B819C8187309340ACF3898185
:1002F0009A8101969A83898329813A818D819E8191
:100300002817390734F3000026960FB6F894DEBF9D
:100310000FBECDBFDF91CF910895CF93DF9300D073
:100320001F92CDB7DEB789837B836A8389818A3048
:1003300031F48A819B81BC018DE00E948D0180ECAB
:1003400090E0FC018081882F90E080729927892BB2
:10035000B1F386EC90E02981FC01208380E090E0FD
:100360000F900F900F90DF91CF910895CF93DF936F
:10037000CDB7DEB781E890E02BE0FC01208388E870
:1003800090E02DE730E0FC01318320838FE690E0A0
:1003900022E0FC01208384E890E0FC0111821082BD
:1003A00080910E0190910F01A0911001B091110167
:1003B0008093530190935401A0935501B09356013B
:1003C0008FE590E02FE530E0F90120812068FC0105
:1003D00020830000DF91CF910895CF93DF93CDB7B5
:1003E000DEB781E890E0FC0110820000DF91CF9140
:1003F0000895CF93DF93CDB7DEB781E080935201AC
:100400000000DF91CF9108951F920F9200905F003E
:100410000F92112400905B000F922F933F934F9304
:100420005F936F937F938F939F93AF93BF93EF935C
:10043000FF93CF93DF93CDB7DEB7809153019091B7
:100440005401A0915501B09156010197A109B1093C
:100450008093530190935401A0935501B09356019A
:100460008091530190915401A0915501B091560192
:10047000892B8A2B8B2B91F40E94F90180910E011C
:1004800090910F01A0911001B0911101809353013F
:1004900090935401A0935501B09356010000DF9151
:1004A000CF91FF91EF91BF91AF919F918F917F91EC
:1004B0006F915F914F913F912F910F9000925B0050
:1004C0000F9000925F000F901F901895CF93DF93CD
:1004D00000D000D0CDB7DEB769837A838B839C834D
:1004E00089819A81AB81BC8180930E0190930F0129
:1004F000A0931001B093110180910E0190910F0112
:10050000A0911001B0911101809353019093540177
:10051000A0935501B093560100000F900F900F90DB
:100520000F90DF91CF910895CF92DF92EF92FF92DB
:10053000CF93DF93CDB7DEB768970FB6F894DEBFE1
:100540000FBECDBF988F8F8B8BEE9FEFA3E9BAE3E1
:1005500089839A83AB83BC8383E79FE7A5E7B9E3ED
:100560008D839E83AF83B88789E597E4ACEBB3E3D3
:1005700089879A87AB87BC878F89988DCC01A0E04B
:10058000B0E0BC01CD010E943614DC01CB0123E3B5
:1005900033E343E550E4BC01CD010E943D15DC018D
:1005A000CB0120E030E040E854E4BC01CD010E94E2
:1005B0008E13DC01CB018D879E87AF87B88B2D858D
:1005C0003E854F85588963E373E383E590E40E9499
:1005D0008E13DC01CB0120E030E040E85FE3BC019A
:1005E000CD010E941C13DC01CB0120E030E44CE182
:1005F00056E4BC01CD010E943D15DC01CB01BC01DC
:10060000CD010E94F514DC01CB01898B9A8BAB8B59
:10061000BC8B29893A894B895C896D817E818F8168
:1006200098850E943D15DC01CB0129813A814B81DF
:100630005C81BC01CD010E941D13DC01CB016C016A
:100640007D0129893A894B895C8969857A858B8501
:100650009C850E943D15DC01CB0129893A894B8993
:100660005C89BC01CD010E943D15DC01CB012989CB
:100670003A894B895C89BC01CD010E943D15DC01A2
:10068000CB019C01AD01C701B6010E941D13DC0125
:10069000CB019C01AD0160E070E080E89FE30E9427
:1006A0008E13DC01CB01BC01CD010E940014DC01E2
:1006B000CB01092E000CAA0BBB0BBC01CD010E9483
:1006C0003814DC01CB0123E333E948E853E4BC01EF
:1006D000CD010E941C13DC01CB01BC01CD010E94A5
:1006E0000714DC01CB019E8B8D8B8D899E896896CA
:1006F0000FB6F894DEBF0FBECDBFDF91CF91FF9054
:10070000EF90DF90CF900895CF93DF9300D000D08B
:1007100000D0CDB7DEB79E838D838D819E810E94F0
:1007200094029A83898389819A81092E000CAA0BED
:10073000BB0BBC01CD010E943814DC01CB0126E6C5
:1007400036E646EE5FE3BC01CD010E943D15DC01BB
:10075000CB0120E030E040E052E4BC01CD010E943A
:100760001D13DC01CB01BC01CD010E940714DC018B
:10077000CB019C838B838B819C8126960FB6F8944A
:10078000DEBF0FBECDBFDF91CF910895CF93DF9332
:1007900000D000D01F92CDB7DEB79D838C8389E057
:1007A000898335C04C815D819A01ADECBCEC0E941F
:1007B0000D13969587959695879596958795880FAD
:1007C000991F9C01220F331F220F331F820F931F8B
:1007D0009A01281B390BC9019B838A8389819FEF6A
:1007E000980F99830E9446018A81805D0E94EB00E8
:1007F0008C819D819C01ADECBCEC0E940D13969503
:10080000879596958795969587959D838C838C8102
:100810009D81892B39F600000F900F900F900F905B
:100820000F90DF91CF910895CF93DF9300D000D048
:100830001F92CDB7DEB79D838C8389E1898335C054
:100840004C815D819A01ADECBCEC0E940D13969534
:1008500087959695879596958795880F991F9C0102
:10086000220F331F220F331F820F931F9A01281B61
:10087000390BC9019B838A8389819FEF980F9983E4
:100880000E9446018A81805D0E94EB008C819D81DF
:100890009C01ADECBCEC0E940D1396958795969546
:1008A0008795969587959D838C838C819D81892BD7
:1008B00039F600000F900F900F900F900F90DF917E
:1008C000CF910895CF93DF9300D000D01F92CDB782
:1008D000DEB789837B836A835D834C830E949400A7
:1008E00066E171E081E00E941B018A819B810E9488
:1008F000C6036CE171E08BE00E941B016EE171E0C8
:100900008EE00E941B0162E271E081E10E941B0106
:100910008C819D810E9414046CE171E08BE10E9446
:100920001B018981882331F468E271E08EE10E9425
:100930001B0105C06CE271E08FE10E941B01000009
:100940000F900F900F900F900F90DF91CF9108951F
:10095000CF93DF9300D000D01F92CDB7DEB789834D
:100960007B836A835D834C830E94940066E171E01F
:1009700081E00E941B018A819B810E94C6036FE275
:1009800071E08BE00E941B016EE171E08EE00E943D
:100990001B0162E271E081E10E941B018C819D815B
:1009A0000E9414046FE271E08BE10E941B018981B7
:1009B000882331F468E271E08EE10E941B0105C0DA
:1009C0006CE271E08FE10E941B0100000F900F901C
:1009D0000F900F900F90DF91CF910895CF93DF93F9
:1009E000CDB7DEB78CE790E0FC0110828AE790E09B
:1009F00028E8FC0120830E9423050000DF91CF91AD
:100A00000895CF93DF93CDB7DEB78AE790E02AE76A
:100A100030E0F90120812868FC0120830E94230531
:100A20000000DF91CF910895CF93DF93CDB7DEB76C
:100A30008AE790E028E8FC0120830E94230500005B
:100A4000DF91CF910895CF93DF93CDB7DEB78AE7DB
:100A500090E02AE730E0F90120812064FC01208346
:100A60000000DF91CF9108951F920F9200905F00D8
:100A70000F92112400905B000F922F938F939F93FE
:100A8000EF93FF93CF93DF93CDB7DEB788E790E086
:100A9000FC018081918190939A01809399018CE768
:100AA00090E0FC0120812F5FFC0120830000DF919A
:100AB000CF91FF91EF919F918F912F910F90009285
:100AC0005B000F9000925F000F901F901895CF93DE
:100AD000DF9300D0CDB7DEB79A83898389819A816D
:100AE0008230910509F4CBC08330910534F400972E
:100AF00061F0019709F4E0C089C18330910509F4E0
:100B00003FC1049709F4F5C081C18091960190918D
:100B10009701843F9140C8F480919D0190919E017E
:100B2000843F914090F080919D0190919E01893584
:100B3000924058F480915701813011F4109257017E
:100B400082E090E09A83898399C080919601909188
:100B5000970189359240D0F080919D0190919E013E
:100B6000843F914098F080919D0190919E0189353C
:100B7000924060F480915701882319F481E08093BA
:100B8000570181E090E09A83898378C080919D012C
:100B900090919E01843F9140A0F5809196019091A3
:100BA0009701843F914068F180919601909197015F
:100BB0008935924030F580911201909113018A3568
:100BC000910549F080911201909113010196909343
:100BD0001301809312018091140190911501809767
:100BE00049F080911401909115010196909315019F
:100BF0008093140110925D0184E090E09A838983D0
:100C00003DC080919D0190919E018935924098F15F
:100C10008091960190919701843F914060F180917D
:100C20009601909197018935924028F580911201A3
:100C300090911301CF9749F0809112019091130187
:100C40000197909313018093120180911401909168
:100C50001501419749F08091140190911501019778
:100C6000909315018093140110925D0183E090E050
:100C70009A83898303C01A821982CBC0CAC080912B
:100C8000960190919701843F914098F480919D0145
:100C900090919E01843F914060F080919D019091E0
:100CA0009E018935924028F482E090E09A838983FE
:100CB000B0C01A821982ADC08091960190919701BF
:100CC000853F914098F080919D0190919E01843FD5
:100CD000914060F080919D0190919E0189359240F4
:100CE00028F481E090E09A83898393C01A82198264
:100CF00090C080915D018F5F80935D0180919D0127
:100D000090919E01843F9140C0F580919D0190910A
:100D10009E01843F914088F180919D0190919E01B8
:100D20008935924050F580915D018A3009F58091B6
:100D30001201909113018336910549F080911201BF
:100D40009091130101969093130180931201809169
:100D5000140190911501879749F0809114019091A9
:100D600015010196909315018093140110925D0175
:100D700084E090E09A8389834CC01A82198249C02A
:100D800080915D018F5F80935D0180919D019091C5
:100D90009E01853F9140B8F180919D0190919E0107
:100DA000843F914080F180919D0190919E01893511
:100DB000924048F580915D018A3001F580911201E1
:100DC00090911301CB9749F08091120190911301FA
:100DD00001979093130180931201809114019091D7
:100DE00015010A9749F0809114019091150101971E
:100DF000909315018093140110925D0183E090E0BF
:100E00009A83898306C01A82198203C01A821982C2
:100E1000000089819A810F900F90DF91CF91089502
:100E2000CF93DF9300D0CDB7DEB79A83898383E277
:100E300090E0FC018081882F90E08170992721E06B
:100E4000892B09F020E0822F8093950189819A8176
:100E500081309105A1F08230910551F1892BC1F5C6
:100E600080919501813041F481E08093980181E087
:100E700090E09A83898331C01A8219822EC08091B2
:100E80009501813029F481E090E09A83898325C01F
:100E900080919501882349F480919801813029F44B
:100EA00082E090E09A83898318C01A82198215C063
:100EB00080919501813039F41092980181E090E0A1
:100EC0009A8389830AC082E090E09A83898305C06F
:100ED0001A82198210929801000089819A810F90DC
:100EE0000F90DF91CF910895CF93DF9300D0CDB7CE
:100EF000DEB79A83898389819A818130910559F07F
:100F00008230910571F1892B09F051C081E090E0A8
:100F10009A8389834FC080919B0190919C010E948C
:100F200084039093A00180939F0120919F013091B1
:100F3000A001809112019091130141E08217930763
:100F400008F040E0842F8093590180915701882355
:100F500019F481E090E002C082E090E09A838983F6
:100F600029C080919B0190919C010E9494029093D2
:100F7000A2018093A1012091A1013091A201809151
:100F800014019091150141E08217930708F040E0A9
:100F9000842F8093590180915701882319F481E0AF
:100FA00090E002C082E090E09A83898303C01A82B5
:100FB0001982000089819A810F900F90DF91CF9163
:100FC0000895CF93DF9300D0CDB7DEB79A8389839E
:100FD00089819A818130910511F182309105D1F199
:100FE000892B09F052C0809158018F5F809358017E
:100FF0000E94940061E371E085E00E941B0169E3B7
:1010000071E083E10E941B019091580181E09230D0
:1010100009F080E0882F90E09A83898339C020917D
:1010200012013091130180919F019091A001E091F4
:101030005901A901BC018E2F0E94620480915701C1
:10104000882319F481E090E002C082E090E09A8366
:1010500089831EC020911401309115018091A10156
:101060009091A201E0915901A901BC018E2F0E942B
:10107000A80480915701882319F481E090E002C010
:1010800082E090E09A83898303C01A82198200006B
:1010900089819A810F900F90DF91CF910895CF931E
:1010A000DF9300D0CDB7DEB79A83898389819A8197
:1010B0008130910559F082309105F9F0892B09F0C2
:1010C00041C082E090E09A8389833FC080915901BA
:1010D000813049F480919801882329F481E090E0DF
:1010E0009A83898332C085E290E021E0FC0120836D
:1010F00082E090E09A83898328C0809159018130F1
:1011000049F480919801813029F482E090E09A833B
:10111000898317C080915901813071F480919801C1
:10112000882351F485E290E021E8FC01208381E0EE
:1011300090E09A83898305C082E090E09A83898356
:1011400004C003C01A821982000089819A810F901D
:101150000F90DF91CF9108950F931F93CF93DF935B
:10116000CDB7DEB7CE5CD1090FB6F894DEBF0FBEA7
:10117000CDBF81E290E0FC01108282E290E02FEF8F
:10118000FC01208384E290E02EEFFC01208385E2C5
:1011900090E021E0FC01208387E290E02FEFFC014A
:1011A000208388E290E0FC0110828AE290E02FEF39
:1011B000FC0120838BE290E0FC011082CE018B5376
:1011C0009F4F2AE0E8E4F1E0DC0101900D922A95BE
:1011D000E1F785E090E09B838A838FEF8C838C819D
:1011E00080935E0184E690E0A0E0B0E080935F0130
:1011F00090936001A0936101B093620180915F01BF
:1012000090916001A0916101B091620180936301AE
:1012100090936401A0936501B093660187E695E021
:1012200090936801809367018C818093690188EEB7
:1012300093E0A0E0B0E080936A0190936B01A093EB
:101240006C01B0936D0180916A0190916B01A09146
:101250006C01B0916D0180936E0190936F01A0932A
:101260007001B093710184E797E0909373018093CC
:1012700072018C818093740184EF91E0A0E0B0E072
:101280008093750190937601A0937701B0937801D4
:101290008091750190917601A0917701B0917801CC
:1012A0008093790190937A01A0937B01B0937C01A4
:1012B00081EE97E090937E0180937D018C818093F5
:1012C0007F0184EF91E0A0E0B0E0809380019093F3
:1012D0008101A0938201B09383018091800190915C
:1012E0008101A0918201B091830180938401909348
:1012F0008501A0938601B09387018FE498E09093D5
:101300008901809388018C8180938A0184E690E032
:10131000A0E0B0E080938B0190938C01A0938D01AD
:10132000B0938E0180918B0190918C01A0918D01E1
:10133000B0918E0180938F0190939001A0939101C1
:10134000B093920180E197E0909394018093930190
:1013500064E670E080E090E00E9466020E94B601C0
:101360000E949F000E94EE0480E090E0A8ECB2E4AE
:101370008D839E83AF83B8878E0107551F4F2BEA5D
:101380003AEA4AEA5EE36D817E818F8198850E9408
:101390003D15DC01CB01F80180839183A283B383E7
:1013A0008E0103551F4F20E030E040E85EE36D8181
:1013B0007E818F8198850E943D15DC01CB01F8016B
:1013C00080839183A283B383CE0187559F4F20E012
:1013D00030E040E85FE3FC016081718182819381AC
:1013E0000E94891388233CF4CE018F549F4F21E043
:1013F000FC0120832CC1CE0183559F4F20E03FEF9D
:101400004FE757E4FC0160817181828193810E94E2
:10141000E81418160CF0CDC020E030E04AE754E4A0
:101420006D817E818F8198850E948E13DC01CB01B6
:101430009E012E543F4FF90180839183A283B38391
:101440008E010A541F4FCE018E549F4F20E030E092
:101450004AE753E4FC0160817181828193810E949B
:101460003D15DC01CB01F80180839183A283B38316
:10147000CE018A549F4F20E030E040E85FE3FC015A
:1014800060817181828193810E94891388234CF449
:10149000CE0186549F4F21E030E0FC013183208350
:1014A0006DC0CE018A549F4F20E03FEF4FE757E4D5
:1014B000FC0160817181828193810E94E814181679
:1014C0000CF04AC0CE018E549F4F20E030E040E245
:1014D00051E4FC0160817181828193810E943D15FC
:1014E000DC01CB018E0106541F4FBC01CD010E94CF
:1014F0000714DC01CB01F8019183808324C0CE0165
:1015000084549F4F29E130E0FC0131832083CE01D8
:1015100084549F4FFC01808191810197F1F79E01D6
:1015200024543F4FF90191838083CE0186549F4F0D
:101530009E0126543F4FF90120813181215031090C
:10154000FC0131832083CE0186549F4FFC018081B2
:101550009181892BA1F67BC08E0106541F4FCE01CD
:101560008A549F4FFC0160817181828193810E9426
:101570000714DC01CB01F80191838083CE018254F2
:101580009F4F9E0126543F4FF90120813181FC017C
:1015900031832083CE0182549F4FFC018081918151
:1015A0000197F1F79E0122543F4FF9019183808307
:1015B0004EC0CE0187559F4F20E030E04FE753E407
:1015C000FC0160817181828193810E94E814181668
:1015D0006CF58E0100541F4FCE0183559F4FFC01C7
:1015E00060817181828193810E940714DC01CB01AB
:1015F000F80191838083CE018E539F4F9E0120542A
:101600003F4FF90120813181FC0131832083CE01DC
:101610008E539F4FFC01808191810197F1F79E01CC
:101620002E533F4FF9019183808328C08E010F54C0
:101630001F4FCE0187559F4FFC01608171818281D0
:1016400093810E940714DC01CB01F8018083CE0155
:101650008C539F4F9E012F543F4FF9012081FC0175
:101660002083CE018C539F4FFC018081282F2A9527
:10167000F1F7CE018C539F4FFC012083809199019B
:1016800090919A01909397018093960180E090E069
:10169000A8ECB2E489879A87AB87BC878E01035791
:1016A0001F4F2BEA3AEA4AEA5EE369857A858B8521
:1016B0009C850E943D15DC01CB01F801808391835C
:1016C000A283B3838E010F561F4F20E030E040E825
:1016D0005EE369857A858B859C850E943D15DC01DA
:1016E000CB01F80180839183A283B383CE0183571A
:1016F0009F4F20E030E040E85FE3FC0160817181B2
:10170000828193810E94891388233CF4CE018B56F9
:101710009F4F21E0FC0120832CC1CE018F569F4FAB
:1017200020E03FEF4FE757E4FC0160817181828147
:1017300093810E94E81418160CF0CDC020E030E030
:101740004AE754E469857A858B859C850E948E13CF
:10175000DC01CB019E012A563F4FF9018083918322
:10176000A283B3838E0106561F4FCE018A569F4F28
:1017700020E030E04AE753E4FC016081718182811E
:1017800093810E943D15DC01CB01F8018083918398
:10179000A283B383CE0186569F4F20E030E040E81D
:1017A0005FE3FC0160817181828193810E948913D2
:1017B00088234CF4CE0182569F4F21E030E0FC019B
:1017C000318320836DC0CE0186569F4F20E03FEFCE
:1017D0004FE757E4FC0160817181828193810E940F
:1017E000E81418160CF04AC0CE018A569F4F20E02C
:1017F00030E040E251E4FC0160817181828193819B
:101800000E943D15DC01CB018E0102561F4FBC0129
:10181000CD010E940714DC01CB01F8019183808384
:1018200024C0CE0180569F4F29E130E0FC01318376
:101830002083CE0180569F4FFC01808191810197CA
:10184000F1F79E0120563F4FF90191838083CE012D
:1018500082569F4F9E0122563F4FF90120813181D0
:1018600021503109FC0131832083CE0182569F4FE4
:10187000FC0180819181892BA1F67BC08E010256EB
:101880001F4FCE0186569F4FFC016081718182817E
:1018900093810E940714DC01CB01F80191838083BE
:1018A000CE018E559F4F9E0122563F4FF901208158
:1018B0003181FC0131832083CE018E559F4FFC0185
:1018C000808191810197F1F79E012E553F4FF901DB
:1018D000918380834EC0CE0183579F4F20E030E03C
:1018E0004FE753E4FC0160817181828193810E9402
:1018F000E81418166CF58E010C551F4FCE018F564B
:101900009F4FFC0160817181828193810E94071445
:10191000DC01CB01F80191838083CE018A559F4F72
:101920009E012C553F4FF90120813181FC0131830B
:101930002083CE018A559F4FFC01808191810197C0
:10194000F1F79E012A553F4FF9019183808328C00A
:101950008E010B561F4FCE0183579F4FFC016081B4
:101960007181828193810E940714DC01CB01F8010F
:101970008083CE0188559F4F9E012B563F4FF90122
:101980002081FC012083CE0188559F4FFC0180817E
:10199000282F2A95F1F7CE0188559F4FFC0120830F
:1019A0000E94010580E090E0A8ECB2E48D879E875C
:1019B000AF87B88B8E010F581F4F2BEA3AEA4AEADD
:1019C0005EE36D857E858F8598890E943D15DC01DB
:1019D000CB01F80180839183A283B3838E010B58DE
:1019E0001F4F20E030E040E85EE36D857E858F8507
:1019F00098890E943D15DC01CB01F8018083918319
:101A0000A283B383CE018F589F4F20E030E040E89F
:101A10005FE3FC0160817181828193810E9489135F
:101A200088233CF4CE0187589F4F21E0FC0120839E
:101A30002CC1CE018B589F4F20E03FEF4FE757E47A
:101A4000FC0160817181828193810E94E8141816E3
:101A50000CF0CDC020E030E04AE754E46D857E858F
:101A60008F8598890E948E13DC01CB019E01265838
:101A70003F4FF90180839183A283B3838E01025883
:101A80001F4FCE0186589F4F20E030E04AE753E4D5
:101A9000FC0160817181828193810E943D15DC018E
:101AA000CB01F80180839183A283B383CE01825856
:101AB0009F4F20E030E040E85FE3FC0160817181EE
:101AC000828193810E94891388234CF4CE018E5722
:101AD0009F4F21E030E0FC01318320836DC0CE01B7
:101AE00082589F4F20E03FEF4FE757E4FC016081B1
:101AF0007181828193810E94E81418160CF04AC00B
:101B0000CE0186589F4F20E030E040E251E4FC01D6
:101B100060817181828193810E943D15DC01CB013E
:101B20008E010E571F4FBC01CD010E940714DC012E
:101B3000CB01F8019183808324C0CE018C579F4F45
:101B400029E130E0FC0131832083CE018C579F4F87
:101B5000FC01808191810197F1F79E012C573F4F45
:101B6000F90191838083CE018E579F4F9E012E579E
:101B70003F4FF9012081318121503109FC0131832E
:101B80002083CE018E579F4FFC0180819181892B4C
:101B9000A1F67BC08E010E571F4FCE0182589F4F7A
:101BA000FC0160817181828193810E940714DC01B4
:101BB000CB01F80191838083CE018A579F4F9E010C
:101BC0002E573F4FF90120813181FC013183208361
:101BD000CE018A579F4FFC01808191810197F1F7D7
:101BE0009E012A573F4FF901918380834EC0CE0159
:101BF0008F589F4F20E030E04FE753E4FC016081B5
:101C00007181828193810E94E81418166CF58E010F
:101C100008571F4FCE018B589F4FFC016081718187
:101C2000828193810E940714DC01CB01F80191832A
:101C30008083CE0186579F4F9E0128573F4FF90161
:101C400020813181FC0131832083CE0186579F4F53
:101C5000FC01808191810197F1F79E0126573F4F4A
:101C6000F9019183808328C08E0107581F4FCE0150
:101C70008F589F4FFC0160817181828193810E9406
:101C80000714DC01CB01F8018083CE0184579F4FFC
:101C90009E0127583F4FF9012081FC012083CE018E
:101CA00084579F4FFC018081282F2A95F1F7CE01A0
:101CB00084579F4FFC0120838091990190919A0154
:101CC00090939E0180939D0180E090E0A8ECB2E4A7
:101CD000898B9A8BAB8BBC8B8E010B5A1F4F2BEAD7
:101CE0003AEA4AEA5EE369897A898B899C890E948B
:101CF0003D15DC01CB01F80180839183A283B3837E
:101D00008E01075A1F4F20E030E040E85EE369890A
:101D10007A898B899C890E943D15DC01CB01F801F1
:101D200080839183A283B383CE018B5A9F4F20E09F
:101D300030E040E85FE3FC01608171818281938142
:101D40000E94891388233CF4CE01835A9F4F21E0DF
:101D5000FC0120832CC1CE01875A9F4F20E03FEF2A
:101D60004FE757E4FC0160817181828193810E9479
:101D7000E81418160CF0CDC020E030E04AE754E437
:101D800069897A898B899C890E948E13DC01CB0139
:101D90009E01225A3F4FF90180839183A283B3832E
:101DA0008E010E591F4FCE01825A9F4F20E030E026
:101DB0004AE753E4FC0160817181828193810E9432
:101DC0003D15DC01CB01F80180839183A283B383AD
:101DD000CE018E599F4F20E030E040E85FE3FC01E8
:101DE00060817181828193810E94891388234CF4E0
:101DF000CE018A599F4F21E030E0FC0131832083DE
:101E00006DC0CE018E599F4F20E03FEF4FE757E462
:101E1000FC0160817181828193810E94E81418160F
:101E20000CF04AC0CE01825A9F4F20E030E040E2E1
:101E300051E4FC0160817181828193810E943D1592
:101E4000DC01CB018E010A591F4FBC01CD010E945C
:101E50000714DC01CB01F8019183808324C0CE01FB
:101E600088599F4F29E130E0FC0131832083CE0166
:101E700088599F4FFC01808191810197F1F79E0164
:101E800028593F4FF90191838083CE018A599F4F92
:101E90009E012A593F4FF90120813181215031099A
:101EA000FC0131832083CE018A599F4FFC01808140
:101EB0009181892BA1F67BC08E010A591F4FCE015B
:101EC0008E599F4FFC0160817181828193810E94B4
:101ED0000714DC01CB01F80191838083CE01865980
:101EE0009F4F9E012A593F4FF90120813181FC010A
:101EF00031832083CE0186599F4FFC0180819181DF
:101F00000197F1F79E0126593F4FF9019183808394
:101F10004EC0CE018B5A9F4F20E030E04FE753E494
:101F2000FC0160817181828193810E94E8141816FE
:101F30006CF58E0104591F4FCE01875A9F4FFC014B
:101F400060817181828193810E940714DC01CB0141
:101F5000F80191838083CE0182599F4F9E012459BD
:101F60003F4FF90120813181FC0131832083CE0173
:101F700082599F4FFC01808191810197F1F79E0169
:101F800022593F4FF9019183808328C08E01035A63
:101F90001F4FCE018B5A9F4FFC016081718182815E
:101FA00093810E940714DC01CB01F8018083CE01EC
:101FB00080599F4F9E01235A3F4FF9012081FC0118
:101FC0002083CE0180599F4FFC018081282F2A95C4
:101FD000F1F7CE0180599F4FFC0120830E94140528
:101FE00080E090E0A6E1B3E48D8B9E8BAF8BB88F41
:101FF0002BEA3AEA4AEA5EE36D897E898F89988DF9
:102000000E943D15DC01CB0189AF9AAFABAFBCAFED
:1020100020E030E040E85EE36D897E898F89988D0D
:102020000E943D15DC01CB019E01235C3F4FF9016D
:1020300080839183A283B38320E030E040E85FE3B4
:1020400069AD7AAD8BAD9CAD0E94891388233CF4B9
:10205000CE018F5B9F4F21E0FC01208322C120E055
:102060003FEF4FE757E4CE01CD96FC0160817181CF
:10207000828193810E94E81418160CF0CDC020E0F4
:1020800030E04AE754E46D897E898F89988D0E94FB
:102090008E13DC01CB019E012E5B3F4FF901808343
:1020A0009183A283B3838E010A5B1F4FCE018E5BA7
:1020B0009F4F20E030E04AE753E4FC0160817181EA
:1020C000828193810E943D15DC01CB01F801808360
:1020D0009183A283B383CE018A5B9F4F20E030E0DF
:1020E00040E85FE3FC0160817181828193810E94FD
:1020F000891388234CF4CE01865B9F4F21E030E0AA
:10210000FC01318320836DC0CE018A5B9F4F20E0AC
:102110003FEF4FE757E4FC01608171818281938139
:102120000E94E81418160CF04AC0CE018E5B9F4F37
:1021300020E030E040E251E4FC0160817181828165
:1021400093810E943D15DC01CB018E01065B1F4F80
:10215000BC01CD010E940714DC01CB01F801918381
:10216000808324C0CE01845B9F4F29E130E0FC01D5
:1021700031832083CE01845B9F4FFC01808191815C
:102180000197F1F79E01245B3F4FF9019183808312
:10219000CE01865B9F4F9E01265B3F4FF901208158
:1021A000318121503109FC0131832083CE01865BCE
:1021B0009F4FFC0180819181892BA1F672C08E0115
:1021C000065B1F4FCE018A5B9F4FFC0160817181CE
:1021D000828193810E940714DC01CB01F801918375
:1021E0008083CE01825B9F4F9E01265B3F4FF901AA
:1021F00020813181FC0131832083CE01825B9F4F9E
:10220000FC01808191810197F1F79E01225B3F4F94
:10221000F9019183808345C020E030E04FE753E42B
:1022200069AD7AAD8BAD9CAD0E94E814181664F5CB
:102230008E01005B1F4FCE01CD96FC016081718144
:10224000828193810E940714DC01CB01F801918304
:102250008083CE018E5A9F4F9E01205B3F4FF90134
:1022600020813181FC0131832083CE018E5A9F4F22
:10227000FC01808191810197F1F79E012E5A3F4F19
:10228000F9019183808324C08E010F5B1F4F69ADDC
:102290007AAD8BAD9CAD0E940714DC01CB01F80137
:1022A0008083CE018C5A9F4F9E012F5B3F4FF901D7
:1022B0002081FC012083CE018C5A9F4FFC0180813C
:1022C000282F2A95F1F7CE018C5A9F4FFC012083CD
:1022D0008091990190919A0190939C0180939B0128
:1022E00080E090E0A8ECB2E4898F9A8FAB8FBC8F2E
:1022F0002BEA3AEA4AEA5EE3698D7A8D8B8D9C8DF2
:102300000E943D15DC01CB018D8F9E8FAF8FB8A34E
:1023100020E030E040E85EE3698D7A8D8B8D9C8D06
:102320000E943D15DC01CB0189A39AA3ABA3BCA3FA
:1023300020E030E040E85FE36D8D7E8D8F8D98A1C9
:102340000E94891388231CF481E08DA3B2C020E091
:102350003FEF4FE757E469A17AA18BA19CA10E94AE
:10236000E81418160CF07BC020E030E04AE754E493
:10237000698D7A8D8B8D9C8D0E948E13DC01CB0133
:102380008EA39FA3A8A7B9A720E030E04AE753E4B3
:102390006EA17FA188A599A50E943D15DC01CB0106
:1023A0008AA79BA7ACA7BDA720E030E040E85FE389
:1023B0006AA57BA58CA59DA50E94891388232CF472
:1023C00081E090E09FA78EA73FC020E03FEF4FE75E
:1023D00057E46AA57BA58CA59DA50E94E814181654
:1023E0004CF520E030E040E251E46EA17FA188A5E9
:1023F00099A50E943D15DC01CB01BC01CD010E94D5
:102400000714DC01CB019FA78EA70FC089E190E0E4
:1024100099AB88AB88A999A90197F1F799AB88ABDB
:102420008EA59FA501979FA78EA78EA59FA5892BF7
:1024300069F73FC06AA57BA58CA59DA50E940714DE
:10244000DC01CB019FA78EA78EA59FA59BAB8AAB76
:102450008AA99BA90197F1F79BAB8AAB2AC020E020
:1024600030E04FE753E46D8D7E8D8F8D98A10E94F3
:10247000E8141816ACF469A17AA18BA19CA10E9462
:102480000714DC01CB019DAB8CAB8CA99DA99FAB44
:102490008EAB8EA99FA90197F1F79FAB8EAB0FC0B2
:1024A0006D8D7E8D8F8D98A10E940714DC01CB016C
:1024B0008DA38DA188AF88AD8A95F1F788AF198279
:1024C0009AC08981882F90E09E012B533F4F880F3F
:1024D000991F820F931FFC0180819181FC0125814E
:1024E0003681478150858981882F90E0BE016B53EA
:1024F0007F4F880F991F860F971FFC018081918164
:10250000FC0181819281A381B481281739074A0790
:102510005B0709F045C08981882F90E09E012B530D
:102520003F4F880F991F820F931FFC01008111817B
:102530008981882F90E09E012B533F4F880F991F70
:10254000820F931FFC0180819181FC0121853285DE
:102550008981882F90E0AE014B535F4F880F991F00
:10256000840F951FFC0180819181FC018081082EE0
:10257000000C990BF9010995F80180838981882F56
:1025800090E09E012B533F4F880F991F820F931F9E
:10259000FC0180819181FC011582168217821086D0
:1025A0008981882F90E09E012B533F4F880F991F00
:1025B000820F931FFC01208131818981882F90E057
:1025C000AE014B535F4F880F991F840F951FFC017D
:1025D00080819181FC0185819681A781B0858C598C
:1025E0009F4FAF4FBF4FF90185839683A783B08775
:1025F00089818F5F89838981282F30E08A819B813F
:102600002817390708F45DCF000080915201882314
:10261000E1F3109252010C94B209A29FB001B39F52
:10262000C001A39F700D811D1124911DB29F700DDB
:10263000811D1124911D08955058BB27AA270E947F
:1026400034130C94AE140E94A01438F00E94A71406
:1026500020F039F49F3F19F426F40C949D140EF4E5
:10266000E095E7FB0C949714E92F0E94BF1458F3F0
:10267000BA17620773078407950720F079F4A6F567
:102680000C94E1140EF4E0950B2EBA2FA02D0B0143
:10269000B90190010C01CA01A0011124FF27591BA7
:1026A00099F0593F50F4503E68F11A16F040A22FAD
:1026B000232F342F4427585FF3CF4695379527951E
:1026C000A795F0405395C9F77EF41F16BA0B620B1D
:1026D000730B840BBAF09150A1F0FF0FBB1F661F64
:1026E000771F881FC2F70EC0BA0F621F731F841FA7
:1026F00048F4879577956795B795F7959E3F08F0CD
:10270000B0CF9395880F08F09927EE0F979587958E
:1027100008950E94731408F481E008950E94A213A2
:102720000C94AE140E94A71458F00E94A01440F01C
:1027300029F45F3F29F00C94971451110C94E21482
:102740000C949D140E94BF1468F39923B1F3552390
:1027500091F3951B550BBB27AA27621773078407B4
:1027600038F09F5F5F4F220F331F441FAA1FA9F34A
:1027700035D00E2E3AF0E0E832D091505040E69538
:10278000001CCAF72BD0FE2F29D0660F771F881F99
:10279000BB1F261737074807AB07B0E809F0BB0B8C
:1027A000802DBF01FF2793585F4F3AF09E3F5105A0
:1027B00078F00C9497140C94E2145F3FE4F3983E85
:1027C000D4F3869577956795B795F7959F5FC9F789
:1027D000880F911D9695879597F90895E1E0660F0A
:1027E000771F881FBB1F621773078407BA0720F083
:1027F000621B730B840BBA0BEE1F88F7E0950895EC
:102800000E9407146894B1110C94E21408950E9478
:10281000C71488F09F5798F0B92F9927B751B0F097
:10282000E1F0660F771F881F991F1AF0BA95C9F754
:1028300014C0B13091F00E94E114B1E008950C94FD
:10284000E114672F782F8827B85F39F0B93FCCF3B0
:10285000869577956795B395D9F73EF490958095D1
:10286000709561957F4F8F4F9F4F0895E89409C0F1
:1028700097FB3EF490958095709561957F4F8F4FB3
:102880009F4F9923A9F0F92F96E9BB279395F695C9
:10289000879577956795B795F111F8CFFAF4BB0F47
:1028A00011F460FF1BC06F5F7F4F8F4F9F4F16C0AB
:1028B000882311F096E911C0772321F09EE8872F35
:1028C000762F05C0662371F096E8862F70E060E0F1
:1028D0002AF09A95660F771F881FDAF7880F96956A
:1028E000879597F90895990F0008550FAA0BE0E80E
:1028F000FEEF16161706E807F907C0F012161306C2
:10290000E407F50798F0621B730B840B950B39F401
:102910000A2661F0232B242B252B21F408950A2667
:1029200009F4A140A6958FEF811D811D089597F9A7
:102930009F6780E870E060E008959FEF80EC089565
:1029400000240A941616170618060906089500248E
:102950000A9412161306140605060895092E039408
:10296000000C11F4882352F0BB0F40F4BF2B11F47C
:1029700060FF04C06F5F7F4F8F4F9F4F089557FDDB
:102980009058440F551F59F05F3F71F04795880FDD
:1029900097FB991F61F09F3F79F087950895121674
:1029A00013061406551FF2CF4695F1DF08C0161620
:1029B00017061806991FF1CF8695710561050894D1
:1029C0000895E894BB2766277727CB0197F90895E8
:1029D0000E94731408F48FEF089516F00C94AA1552
:1029E0000C949D1468940C9497140E94C714A8F337
:1029F0009923C1F3AEF3DF93CF931F930F93FF920D
:102A0000C92FDD2788232AF02197660F771F881F9B
:102A1000DAF720E030E040E85FEB9FE3883920F010
:102A2000803E38F021968F770E941D13ECE8F0E08D
:102A300004C00E941D13E9EBF0E00E94B8158B0161
:102A4000BE01EC01FB2E6F5771097595771F880B3E
:102A5000990B0E94381428E132E741E35FE30E94BA
:102A60005015AF2D9801AE01FF900F911F91CF919E
:102A7000DF910E9434130C94AE140E9450150C94F4
:102A8000AE140E94A01438F00E94A71420F09523E1
:102A900011F00C9497140C949D1411240C94E214CE
:102AA0000E94BF1470F3959FC1F3950F50E0551F1E
:102AB000629FF001729FBB27F00DB11D639FAA2793
:102AC000F00DB11DAA1F649F6627B00DA11D661FE2
:102AD000829F2227B00DA11D621F739FB00DA11D03
:102AE000621F839FA00D611D221F749F3327A00DBD
:102AF000611D231F849F600D211D822F762F6A2F59
:102B000011249F5750409AF0F1F088234AF0EE0FBD
:102B1000FF1FBB1F661F771F881F91505040A9F7EA
:102B20009E3F510580F00C9497140C94E2145F3F83
:102B3000E4F3983ED4F3869577956795B795F79526
:102B4000E7959F5FC1F7FE2B880F911D969587959E
:102B500097F908959F3F31F0915020F4879577952C
:102B60006795B795880F911D9695879597F9089564
:102B7000DF93CF931F930F93FF92EF92DF927B012E
:102B80008C01689406C0DA2EEF010E945015FE01F8
:102B9000E894A5912591359145915591A6F3EF01C2
:102BA0000E943413FE019701A801DA9469F7DF90BF
:102BB000EF90FF900F911F91CF91DF910895F894BE
:022BC000FFCF45
:102BC20000000002000000008D0100000000010072
:102BD20000004800160054454D503A004600464158
:102BE2004E00445352443A004F4646004F4E004373
:102BF2000043532D3132304200435553544F4D2040
:102C020050524F4A454354005E01690174017F01ED
:022C12008A0135
:00000001FF
